{
  "address": "0xe1Db6B60f244FfAfb964dF26F99302D4DA2F50b4",
  "abi": [
    {
      "inputs": [
        {
          "internalType": "address",
          "name": "_owner",
          "type": "address"
        }
      ],
      "stateMutability": "nonpayable",
      "type": "constructor"
    },
    {
      "anonymous": false,
      "inputs": [
        {
          "indexed": true,
          "internalType": "uint256",
          "name": "pollId",
          "type": "uint256"
        },
        {
          "indexed": false,
          "internalType": "uint256",
          "name": "yesCount",
          "type": "uint256"
        },
        {
          "indexed": false,
          "internalType": "uint256",
          "name": "noCount",
          "type": "uint256"
        }
      ],
      "name": "BatchVotesProcessed",
      "type": "event"
    },
    {
      "anonymous": false,
      "inputs": [
        {
          "indexed": true,
          "internalType": "uint256",
          "name": "pollId",
          "type": "uint256"
        },
        {
          "indexed": false,
          "internalType": "string",
          "name": "question",
          "type": "string"
        },
        {
          "indexed": true,
          "internalType": "address",
          "name": "creator",
          "type": "address"
        },
        {
          "indexed": false,
          "internalType": "uint256",
          "name": "duration",
          "type": "uint256"
        },
        {
          "indexed": false,
          "internalType": "uint256",
          "name": "expiresAt",
          "type": "uint256"
        }
      ],
      "name": "PollCreated",
      "type": "event"
    },
    {
      "anonymous": false,
      "inputs": [
        {
          "indexed": true,
          "internalType": "uint256",
          "name": "pollId",
          "type": "uint256"
        },
        {
          "indexed": true,
          "internalType": "address",
          "name": "voter",
          "type": "address"
        },
        {
          "indexed": false,
          "internalType": "bool",
          "name": "vote",
          "type": "bool"
        }
      ],
      "name": "VoteSubmitted",
      "type": "event"
    },
    {
      "inputs": [],
      "name": "MAX_POLL_DURATION",
      "outputs": [
        {
          "internalType": "uint256",
          "name": "",
          "type": "uint256"
        }
      ],
      "stateMutability": "view",
      "type": "function"
    },
    {
      "inputs": [],
      "name": "MAX_QUESTION_LENGTH",
      "outputs": [
        {
          "internalType": "uint256",
          "name": "",
          "type": "uint256"
        }
      ],
      "stateMutability": "view",
      "type": "function"
    },
    {
      "inputs": [],
      "name": "MIN_POLL_DURATION",
      "outputs": [
        {
          "internalType": "uint256",
          "name": "",
          "type": "uint256"
        }
      ],
      "stateMutability": "view",
      "type": "function"
    },
    {
      "inputs": [
        {
          "internalType": "string",
          "name": "_question",
          "type": "string"
        },
        {
          "internalType": "uint256",
          "name": "_duration",
          "type": "uint256"
        }
      ],
      "name": "createPoll",
      "outputs": [
        {
          "internalType": "uint256",
          "name": "",
          "type": "uint256"
        }
      ],
      "stateMutability": "nonpayable",
      "type": "function"
    },
    {
      "inputs": [],
      "name": "getActivePollCount",
      "outputs": [
        {
          "internalType": "uint256",
          "name": "",
          "type": "uint256"
        }
      ],
      "stateMutability": "view",
      "type": "function"
    },
    {
      "inputs": [],
      "name": "getAllPolls",
      "outputs": [
        {
          "internalType": "uint256[]",
          "name": "pollIds",
          "type": "uint256[]"
        },
        {
          "internalType": "string[]",
          "name": "questions",
          "type": "string[]"
        },
        {
          "internalType": "uint256[]",
          "name": "yesVotes",
          "type": "uint256[]"
        },
        {
          "internalType": "uint256[]",
          "name": "noVotes",
          "type": "uint256[]"
        },
        {
          "internalType": "bool[]",
          "name": "active",
          "type": "bool[]"
        },
        {
          "internalType": "address[]",
          "name": "creators",
          "type": "address[]"
        },
        {
          "internalType": "uint256[]",
          "name": "createdAts",
          "type": "uint256[]"
        },
        {
          "internalType": "uint256[]",
          "name": "durations",
          "type": "uint256[]"
        }
      ],
      "stateMutability": "view",
      "type": "function"
    },
    {
      "inputs": [],
      "name": "getDomainSeparator",
      "outputs": [
        {
          "internalType": "bytes32",
          "name": "",
          "type": "bytes32"
        }
      ],
      "stateMutability": "view",
      "type": "function"
    },
    {
      "inputs": [
        {
          "internalType": "uint256",
          "name": "_pollId",
          "type": "uint256"
        }
      ],
      "name": "getPoll",
      "outputs": [
        {
          "internalType": "string",
          "name": "question",
          "type": "string"
        },
        {
          "internalType": "uint256",
          "name": "yesVotes",
          "type": "uint256"
        },
        {
          "internalType": "uint256",
          "name": "noVotes",
          "type": "uint256"
        },
        {
          "internalType": "bool",
          "name": "active",
          "type": "bool"
        },
        {
          "internalType": "address",
          "name": "creator",
          "type": "address"
        },
        {
          "internalType": "uint256",
          "name": "createdAt",
          "type": "uint256"
        },
        {
          "internalType": "uint256",
          "name": "duration",
          "type": "uint256"
        }
      ],
      "stateMutability": "view",
      "type": "function"
    },
    {
      "inputs": [
        {
          "internalType": "uint256",
          "name": "_pollId",
          "type": "uint256"
        }
      ],
      "name": "getPollExpiryTime",
      "outputs": [
        {
          "internalType": "uint256",
          "name": "expiryTime",
          "type": "uint256"
        }
      ],
      "stateMutability": "view",
      "type": "function"
    },
    {
      "inputs": [
        {
          "internalType": "address",
          "name": "_creator",
          "type": "address"
        }
      ],
      "name": "getPollsByCreator",
      "outputs": [
        {
          "internalType": "uint256[]",
          "name": "",
          "type": "uint256[]"
        }
      ],
      "stateMutability": "view",
      "type": "function"
    },
    {
      "inputs": [
        {
          "internalType": "uint256",
          "name": "_pollId",
          "type": "uint256"
        }
      ],
      "name": "getTimeUntilExpiry",
      "outputs": [
        {
          "internalType": "uint256",
          "name": "remainingTime",
          "type": "uint256"
        }
      ],
      "stateMutability": "view",
      "type": "function"
    },
    {
      "inputs": [
        {
          "internalType": "address",
          "name": "_user",
          "type": "address"
        }
      ],
      "name": "getUserNonce",
      "outputs": [
        {
          "internalType": "uint256",
          "name": "",
          "type": "uint256"
        }
      ],
      "stateMutability": "view",
      "type": "function"
    },
    {
      "inputs": [
        {
          "internalType": "uint256",
          "name": "_pollId",
          "type": "uint256"
        },
        {
          "internalType": "bool",
          "name": "_vote",
          "type": "bool"
        },
        {
          "internalType": "uint256",
          "name": "_nonce",
          "type": "uint256"
        }
      ],
      "name": "getVoteHash",
      "outputs": [
        {
          "internalType": "bytes32",
          "name": "",
          "type": "bytes32"
        }
      ],
      "stateMutability": "view",
      "type": "function"
    },
    {
      "inputs": [
        {
          "internalType": "uint256",
          "name": "_pollId",
          "type": "uint256"
        },
        {
          "internalType": "address",
          "name": "_user",
          "type": "address"
        }
      ],
      "name": "hasUserVoted",
      "outputs": [
        {
          "internalType": "bool",
          "name": "",
          "type": "bool"
        }
      ],
      "stateMutability": "view",
      "type": "function"
    },
    {
      "inputs": [
        {
          "internalType": "uint256",
          "name": "",
          "type": "uint256"
        },
        {
          "internalType": "address",
          "name": "",
          "type": "address"
        }
      ],
      "name": "hasVoted",
      "outputs": [
        {
          "internalType": "bool",
          "name": "",
          "type": "bool"
        }
      ],
      "stateMutability": "view",
      "type": "function"
    },
    {
      "inputs": [
        {
          "internalType": "uint256",
          "name": "_pollId",
          "type": "uint256"
        }
      ],
      "name": "isPollActive",
      "outputs": [
        {
          "internalType": "bool",
          "name": "",
          "type": "bool"
        }
      ],
      "stateMutability": "view",
      "type": "function"
    },
    {
      "inputs": [
        {
          "internalType": "address",
          "name": "",
          "type": "address"
        }
      ],
      "name": "nonces",
      "outputs": [
        {
          "internalType": "uint256",
          "name": "",
          "type": "uint256"
        }
      ],
      "stateMutability": "view",
      "type": "function"
    },
    {
      "inputs": [],
      "name": "owner",
      "outputs": [
        {
          "internalType": "address",
          "name": "",
          "type": "address"
        }
      ],
      "stateMutability": "view",
      "type": "function"
    },
    {
      "inputs": [],
      "name": "pollCount",
      "outputs": [
        {
          "internalType": "uint256",
          "name": "",
          "type": "uint256"
        }
      ],
      "stateMutability": "view",
      "type": "function"
    },
    {
      "inputs": [
        {
          "internalType": "uint256",
          "name": "",
          "type": "uint256"
        }
      ],
      "name": "polls",
      "outputs": [
        {
          "internalType": "string",
          "name": "question",
          "type": "string"
        },
        {
          "internalType": "uint256",
          "name": "yesVotes",
          "type": "uint256"
        },
        {
          "internalType": "uint256",
          "name": "noVotes",
          "type": "uint256"
        },
        {
          "internalType": "address",
          "name": "creator",
          "type": "address"
        },
        {
          "internalType": "uint256",
          "name": "createdAt",
          "type": "uint256"
        },
        {
          "internalType": "uint256",
          "name": "duration",
          "type": "uint256"
        }
      ],
      "stateMutability": "view",
      "type": "function"
    },
    {
      "inputs": [
        {
          "internalType": "uint256",
          "name": "_pollId",
          "type": "uint256"
        },
        {
          "internalType": "bool",
          "name": "_vote",
          "type": "bool"
        },
        {
          "internalType": "uint256",
          "name": "_nonce",
          "type": "uint256"
        },
        {
          "internalType": "bytes",
          "name": "_signature",
          "type": "bytes"
        }
      ],
      "name": "recoverSigner",
      "outputs": [
        {
          "internalType": "address",
          "name": "",
          "type": "address"
        }
      ],
      "stateMutability": "view",
      "type": "function"
    },
    {
      "inputs": [
        {
          "internalType": "uint256[]",
          "name": "_pollIds",
          "type": "uint256[]"
        },
        {
          "internalType": "bool[]",
          "name": "_votes",
          "type": "bool[]"
        },
        {
          "internalType": "uint256[]",
          "name": "_nonces",
          "type": "uint256[]"
        },
        {
          "internalType": "bytes[]",
          "name": "_signatures",
          "type": "bytes[]"
        }
      ],
      "name": "submitVotes",
      "outputs": [],
      "stateMutability": "nonpayable",
      "type": "function"
    }
  ],
  "transactionHash": "0x355c754c7de59b94bf9f1bbc2fb1c197298e24deb0cad8a82c691d20be29cb6a",
  "args": [
    "0x119d9A1ef0D16361284a9661727b363B04B5B0c8"
  ],
  "numDeployments": 2,
  "solcInputHash": "bdbc33254eaf69d6e868245cc1f4be14",
  "bytecode": "0x60a06040526000805534801561001457600080fd5b50604051620022ae380380620022ae83398101604081905261003591610046565b6001600160a01b0316608052610076565b60006020828403121561005857600080fd5b81516001600160a01b038116811461006f57600080fd5b9392505050565b60805161221562000099600039600081816102700152610c0301526122156000f3fe608060405234801561001057600080fd5b50600436106101425760003560e01c8063ac2f0074116100b8578063d29f70e81161007c578063d29f70e814610319578063dc296ae114610322578063e1efe2ef1461035b578063e238b7641461036e578063ed24911d14610378578063fb790a321461038057600080fd5b8063ac2f0074146102b3578063b2588802146102d8578063b91e9b4a146102eb578063c7449cb7146102f3578063cd5a7a2a1461030657600080fd5b80635b56d8611161010a5780635b56d861146101fa57806365b390c61461020d5780636834e3a8146102225780637ecebe001461024b5780638da5cb5b1461026b5780639207891d146102aa57600080fd5b80631a8cbcaa146101475780631d59fd78146101765780632ec154801461018d57806332b633fa146101b057806343859632146101cc575b600080fd5b61015a610155366004611907565b6103a0565b60405161016d9796959493929190611966565b60405180910390f35b61017f610e1081565b60405190815260200161016d565b6101a061019b366004611907565b6104fe565b604051901515815260200161016d565b6101b8610625565b60405161016d989796959493929190611a59565b6101a06101da366004611b66565b600360209081526000928352604080842090915290825290205460ff1681565b61017f610208366004611907565b610ab1565b61022061021b366004611d6c565b610bf8565b005b61017f610230366004611e73565b6001600160a01b031660009081526002602052604090205490565b61017f610259366004611e73565b60026020526000908152604090205481565b6102927f000000000000000000000000000000000000000000000000000000000000000081565b6040516001600160a01b03909116815260200161016d565b61017f60005481565b6102c66102c1366004611907565b6110d3565b60405161016d96959493929190611e8e565b61017f6102e6366004611ed3565b611199565b61017f611240565b61017f610301366004611f08565b611283565b610292610314366004611f60565b6114bc565b61017f6101f481565b6101a0610330366004611b66565b60009182526003602090815260408084206001600160a01b0393909316845291905290205460ff1690565b61017f610369366004611907565b6115fb565b61017f62278d0081565b61017f611720565b61039361038e366004611e73565b6117f2565b60405161016d9190611fb4565b606060008060008060008060005488106103d55760405162461bcd60e51b81526004016103cc90611fc7565b60405180910390fd5b600088815260016020526040808220815160c081019092528054829082906103fc90611ff4565b80601f016020809104026020016040519081016040528092919081815260200182805461042890611ff4565b80156104755780601f1061044a57610100808354040283529160200191610475565b820191906000526020600020905b81548152906001019060200180831161045857829003601f168201915b5050509183525050600182015460208201526002820154604082015260038201546001600160a01b031660608201526004820154608082015260059091015460a090910152905060006104c78a6104fe565b8251602084015160408501516060860151608087015160a090970151939f929e50909c50929a509198509296509194509092505050565b6000805482106105205760405162461bcd60e51b81526004016103cc90611fc7565b600082815260016020526040808220815160c0810190925280548290829061054790611ff4565b80601f016020809104026020016040519081016040528092919081815260200182805461057390611ff4565b80156105c05780601f10610595576101008083540402835291602001916105c0565b820191906000526020600020905b8154815290600101906020018083116105a357829003601f168201915b5050509183525050600182015460208201526002820154604082015260038201546001600160a01b03166060820152600482015460808083019190915260059092015460a0918201528201519082015191925061061c9161203e565b42109392505050565b6060806060806060806060806000546001600160401b0381111561064b5761064b611b92565b604051908082528060200260200182016040528015610674578160200160208202803683370190505b5097506000546001600160401b0381111561069157610691611b92565b6040519080825280602002602001820160405280156106c457816020015b60608152602001906001900390816106af5790505b5096506000546001600160401b038111156106e1576106e1611b92565b60405190808252806020026020018201604052801561070a578160200160208202803683370190505b5095506000546001600160401b0381111561072757610727611b92565b604051908082528060200260200182016040528015610750578160200160208202803683370190505b5094506000546001600160401b0381111561076d5761076d611b92565b604051908082528060200260200182016040528015610796578160200160208202803683370190505b5093506000546001600160401b038111156107b3576107b3611b92565b6040519080825280602002602001820160405280156107dc578160200160208202803683370190505b5092506000546001600160401b038111156107f9576107f9611b92565b604051908082528060200260200182016040528015610822578160200160208202803683370190505b5091506000546001600160401b0381111561083f5761083f611b92565b604051908082528060200260200182016040528015610868578160200160208202803683370190505b50905060005b600054811015610aa657600081815260016020526040808220815160c0810190925280548290829061089f90611ff4565b80601f01602080910402602001604051908101604052809291908181526020018280546108cb90611ff4565b80156109185780601f106108ed57610100808354040283529160200191610918565b820191906000526020600020905b8154815290600101906020018083116108fb57829003601f168201915b5050509183525050600182015460208201526002820154604082015260038201546001600160a01b031660608201526004820154608082015260059091015460a0909101528a5190915082908b908290811061097657610976612051565b602002602001018181525050806000015189838151811061099957610999612051565b602002602001018190525080602001518883815181106109bb576109bb612051565b60200260200101818152505080604001518783815181106109de576109de612051565b6020026020010181815250506109f3826104fe565b868381518110610a0557610a05612051565b6020026020010190151590811515815250508060600151858381518110610a2e57610a2e612051565b60200260200101906001600160a01b031690816001600160a01b0316815250508060800151848381518110610a6557610a65612051565b6020026020010181815250508060a00151838381518110610a8857610a88612051565b60209081029190910101525080610a9e81612067565b91505061086e565b509091929394959697565b600080548210610ad35760405162461bcd60e51b81526004016103cc90611fc7565b600082815260016020526040808220815160c08101909252805482908290610afa90611ff4565b80601f0160208091040260200160405190810160405280929190818152602001828054610b2690611ff4565b8015610b735780601f10610b4857610100808354040283529160200191610b73565b820191906000526020600020905b815481529060010190602001808311610b5657829003601f168201915b5050509183525050600182015460208201526002820154604082015260038201546001600160a01b03166060820152600482015460808083019190915260059092015460a09182015282015190820151919250600091610bd3919061203e565b9050804210610be6575060009392505050565b610bf04282612080565b949350505050565b336001600160a01b037f00000000000000000000000000000000000000000000000000000000000000001614610c7a5760405162461bcd60e51b815260206004820152602160248201527f4f6e6c79206f776e65722063616e2063616c6c20746869732066756e6374696f6044820152603760f91b60648201526084016103cc565b6000845111610ccb5760405162461bcd60e51b815260206004820152601960248201527f43616e6e6f74207375626d697420656d7074792062617463680000000000000060448201526064016103cc565b82518451148015610cdd575081518351145b8015610cea575080518251145b610d365760405162461bcd60e51b815260206004820152601860248201527f4172726179206c656e67746873206d757374206d61746368000000000000000060448201526064016103cc565b60005b8451811015611040576000858281518110610d5657610d56612051565b602002602001015190506000858381518110610d7457610d74612051565b602002602001015190506000858481518110610d9257610d92612051565b602002602001015190506000858581518110610db057610db0612051565b602002602001015190506000548410610ddb5760405162461bcd60e51b81526004016103cc90611fc7565b610de4846104fe565b610e235760405162461bcd60e51b815260206004820152601060248201526f141bdb1b081a185cc8195e1c1a5c995960821b60448201526064016103cc565b6000610e31858585856114bc565b90506001600160a01b038116610e7d5760405162461bcd60e51b8152602060048201526011602482015270496e76616c6964207369676e617475726560781b60448201526064016103cc565b6001600160a01b0381166000908152600260205260409020548314610ed45760405162461bcd60e51b815260206004820152600d60248201526c496e76616c6964206e6f6e636560981b60448201526064016103cc565b60008581526003602090815260408083206001600160a01b038516845290915290205460ff1615610f3c5760405162461bcd60e51b8152602060048201526012602482015271155cd95c88185b1c9958591e481d9bdd195960721b60448201526064016103cc565b6001600160a01b0381166000908152600260205260408120805491610f6083612067565b909155505060008581526003602090815260408083206001600160a01b03851684529091529020805460ff191660011790558315610fbf576000858152600160208190526040822001805491610fb583612067565b9190505550610fe2565b6000858152600160205260408120600201805491610fdc83612067565b91905055505b806001600160a01b0316857f7ae256270c354f1f830c52697713782ce51539e910d41781cbb063a49c42c0f986604051611020911515815260200190565b60405180910390a35050505050808061103890612067565b915050610d39565b508351156110cd57600084600186516110599190612080565b8151811061106957611069612051565b602090810291909101810151600081815260018084526040918290209081015460029091015482519182529381019390935290925082917f0ad8235dd0ae225529dd0d79ccd8637d2ba3eb5653a707743368fb33f1863fd8910160405180910390a2505b50505050565b6001602052600090815260409020805481906110ee90611ff4565b80601f016020809104026020016040519081016040528092919081815260200182805461111a90611ff4565b80156111675780601f1061113c57610100808354040283529160200191611167565b820191906000526020600020905b81548152906001019060200180831161114a57829003601f168201915b5050506001840154600285015460038601546004870154600590970154959692959194506001600160a01b0316925086565b604080517f1fb548e0983f356c88f429e14f25799dd22a1d793547090f579a9eefd28980216020820152908101849052821515606082015260808101829052600090819060a001604051602081830303815290604052805190602001209050611200611720565b60405161190160f01b6020820152602281019190915260428101829052606201604051602081830303815290604052805190602001209150509392505050565b600080805b60005481101561127d57611258816104fe565b1561126b578161126781612067565b9250505b8061127581612067565b915050611245565b50919050565b6000808351116112d55760405162461bcd60e51b815260206004820152601860248201527f5175657374696f6e2063616e6e6f7420626520656d707479000000000000000060448201526064016103cc565b6101f48351111561131c5760405162461bcd60e51b81526020600482015260116024820152705175657374696f6e20746f6f206c6f6e6760781b60448201526064016103cc565b610e108210156113675760405162461bcd60e51b81526020600482015260166024820152754475726174696f6e2062656c6f77206d696e696d756d60501b60448201526064016103cc565b62278d008211156113b35760405162461bcd60e51b81526020600482015260166024820152754475726174696f6e2061626f7665206d6178696d756d60501b60448201526064016103cc565b6000805481806113c283612067565b90915550905060006113d4844261203e565b6040805160c0810182528781526000602080830182905282840182905233606084015242608084015260a08301899052868252600190529190912081519293509091819061142290826120e2565b5060208201516001820155604080830151600283015560608301516003830180546001600160a01b0319166001600160a01b039092169190911790556080830151600483015560a09092015160059091015551339083907fca8cfbb6645913473bbcef27cf3f67a6711384974f848bc9208a5edc45b72f37906114aa908990899087906121a1565b60405180910390a35090505b92915050565b60405163592c440160e11b8152600481018590528315156024820152604481018390526000908190309063b258880290606401602060405180830381865afa15801561150c573d6000803e3d6000fd5b505050506040513d601f19601f8201168201806040525081019061153091906121c6565b905082516041146115835760405162461bcd60e51b815260206004820152601860248201527f496e76616c6964207369676e6174757265206c656e677468000000000000000060448201526064016103cc565b60208381015160408086015160608088015183516000808252968101808652889052951a928501839052840183905260808401819052919260019060a0016020604051602081039080840390855afa1580156115e3573d6000803e3d6000fd5b5050604051601f1901519a9950505050505050505050565b60008054821061161d5760405162461bcd60e51b81526004016103cc90611fc7565b600082815260016020526040808220815160c0810190925280548290829061164490611ff4565b80601f016020809104026020016040519081016040528092919081815260200182805461167090611ff4565b80156116bd5780601f10611692576101008083540402835291602001916116bd565b820191906000526020600020905b8154815290600101906020018083116116a057829003601f168201915b5050509183525050600182015460208201526002820154604082015260038201546001600160a01b03166060820152600482015460808083019190915260059092015460a091820152820151908201519192506117199161203e565b9392505050565b604080518082018252600b81526a11d85cdb195cdcd41bdb1b60aa1b6020918201528151808301835260018152603160f81b9082015281517f8b73c3c69bb8fe3d512ecc4cf759cc79239f7b179b0ffacaa9a75d522b39400f818301527ff40932da60cfa659da552fdf44528cb7d4f47c1d8809f47c9353077195a2064b818401527fc89efdaa54c0f20c7adf612882df0950f5a951637e0307cdcb4c672f298b8bc660608201524660808201523060a0808301919091528351808303909101815260c0909101909252815191012090565b60606000805b600054811015611846576000818152600160205260409020600301546001600160a01b03808616911603611834578161183081612067565b9250505b8061183e81612067565b9150506117f8565b506000816001600160401b0381111561186157611861611b92565b60405190808252806020026020018201604052801561188a578160200160208202803683370190505b5090506000805b6000548110156118fd576000818152600160205260409020600301546001600160a01b038088169116036118eb57808383815181106118d2576118d2612051565b6020908102919091010152816118e781612067565b9250505b806118f581612067565b915050611891565b5090949350505050565b60006020828403121561191957600080fd5b5035919050565b6000815180845260005b818110156119465760208185018101518683018201520161192a565b506000602082860101526020601f19601f83011685010191505092915050565b60e08152600061197960e083018a611920565b602083019890985250604081019590955292151560608501526001600160a01b0391909116608084015260a083015260c090910152919050565b600081518084526020808501945080840160005b838110156119e3578151875295820195908201906001016119c7565b509495945050505050565b600081518084526020808501945080840160005b838110156119e3578151151587529582019590820190600101611a02565b600081518084526020808501945080840160005b838110156119e35781516001600160a01b031687529582019590820190600101611a34565b6000610100808352611a6d8184018c6119b3565b9050602083820381850152818b518084528284019150828160051b850101838e0160005b83811015611abf57601f19878403018552611aad838351611920565b94860194925090850190600101611a91565b50508681036040880152611ad3818e6119b3565b9450505050508281036060840152611aeb81896119b3565b90508281036080840152611aff81886119ee565b905082810360a0840152611b138187611a20565b905082810360c0840152611b2781866119b3565b905082810360e0840152611b3b81856119b3565b9b9a5050505050505050505050565b80356001600160a01b0381168114611b6157600080fd5b919050565b60008060408385031215611b7957600080fd5b82359150611b8960208401611b4a565b90509250929050565b634e487b7160e01b600052604160045260246000fd5b604051601f8201601f191681016001600160401b0381118282101715611bd057611bd0611b92565b604052919050565b60006001600160401b03821115611bf157611bf1611b92565b5060051b60200190565b600082601f830112611c0c57600080fd5b81356020611c21611c1c83611bd8565b611ba8565b82815260059290921b84018101918181019086841115611c4057600080fd5b8286015b84811015611c5b5780358352918301918301611c44565b509695505050505050565b80358015158114611b6157600080fd5b60006001600160401b03831115611c8f57611c8f611b92565b611ca2601f8401601f1916602001611ba8565b9050828152838383011115611cb657600080fd5b828260208301376000602084830101529392505050565b600082601f830112611cde57600080fd5b61171983833560208501611c76565b600082601f830112611cfe57600080fd5b81356020611d0e611c1c83611bd8565b82815260059290921b84018101918181019086841115611d2d57600080fd5b8286015b84811015611c5b5780356001600160401b03811115611d505760008081fd5b611d5e8986838b0101611ccd565b845250918301918301611d31565b60008060008060808587031215611d8257600080fd5b84356001600160401b0380821115611d9957600080fd5b611da588838901611bfb565b9550602091508187013581811115611dbc57600080fd5b8701601f81018913611dcd57600080fd5b8035611ddb611c1c82611bd8565b81815260059190911b8201840190848101908b831115611dfa57600080fd5b928501925b82841015611e1f57611e1084611c66565b82529285019290850190611dff565b97505050506040870135915080821115611e3857600080fd5b611e4488838901611bfb565b93506060870135915080821115611e5a57600080fd5b50611e6787828801611ced565b91505092959194509250565b600060208284031215611e8557600080fd5b61171982611b4a565b60c081526000611ea160c0830189611920565b60208301979097525060408101949094526001600160a01b03929092166060840152608083015260a090910152919050565b600080600060608486031215611ee857600080fd5b83359250611ef860208501611c66565b9150604084013590509250925092565b60008060408385031215611f1b57600080fd5b82356001600160401b03811115611f3157600080fd5b8301601f81018513611f4257600080fd5b611f5185823560208401611c76565b95602094909401359450505050565b60008060008060808587031215611f7657600080fd5b84359350611f8660208601611c66565b92506040850135915060608501356001600160401b03811115611fa857600080fd5b611e6787828801611ccd565b60208152600061171960208301846119b3565b602080825260139082015272141bdb1b08191bd95cc81b9bdd08195e1a5cdd606a1b604082015260600190565b600181811c9082168061200857607f821691505b60208210810361127d57634e487b7160e01b600052602260045260246000fd5b634e487b7160e01b600052601160045260246000fd5b808201808211156114b6576114b6612028565b634e487b7160e01b600052603260045260246000fd5b60006001820161207957612079612028565b5060010190565b818103818111156114b6576114b6612028565b601f8211156120dd57600081815260208120601f850160051c810160208610156120ba5750805b601f850160051c820191505b818110156120d9578281556001016120c6565b5050505b505050565b81516001600160401b038111156120fb576120fb611b92565b61210f816121098454611ff4565b84612093565b602080601f831160018114612144576000841561212c5750858301515b600019600386901b1c1916600185901b1785556120d9565b600085815260208120601f198616915b8281101561217357888601518255948401946001909101908401612154565b50858210156121915787850151600019600388901b60f8161c191681555b5050505050600190811b01905550565b6060815260006121b46060830186611920565b60208301949094525060400152919050565b6000602082840312156121d857600080fd5b505191905056fea26469706673582212200d2a93e58bb2ea64c2950fe3a3476c8962b852edfec1453be84b4e08b03d1b4964736f6c63430008140033",
  "devdoc": {
    "author": "BuidlGuidl",
    "details": "A gasless polling system using EIP-712 signatures for off-chain voting",
    "kind": "dev",
    "methods": {
      "createPoll(string,uint256)": {
        "details": "Creates a new poll with configurable duration",
        "params": {
          "_duration": "Duration in seconds (must be between MIN and MAX)",
          "_question": "The poll question"
        }
      },
      "getActivePollCount()": {
        "details": "Gets the number of active polls"
      },
      "getAllPolls()": {
        "details": "Gets all polls (view function for frontend)"
      },
      "getDomainSeparator()": {
        "details": "Gets the domain separator for EIP-712"
      },
      "getPoll(uint256)": {
        "details": "Gets poll information",
        "params": {
          "_pollId": "The poll ID"
        }
      },
      "getPollExpiryTime(uint256)": {
        "details": "Gets the expiry timestamp of a poll",
        "params": {
          "_pollId": "The poll ID"
        },
        "returns": {
          "expiryTime": "Unix timestamp when poll expires"
        }
      },
      "getPollsByCreator(address)": {
        "details": "Gets all polls created by a specific address",
        "params": {
          "_creator": "The creator address"
        }
      },
      "getTimeUntilExpiry(uint256)": {
        "details": "Gets remaining time until poll expires (in seconds)",
        "params": {
          "_pollId": "The poll ID"
        },
        "returns": {
          "remainingTime": "Time in seconds (0 if poll has expired)"
        }
      },
      "getUserNonce(address)": {
        "details": "Gets user's current nonce",
        "params": {
          "_user": "The user address"
        }
      },
      "getVoteHash(uint256,bool,uint256)": {
        "details": "Constructs the hash that users need to sign for voting",
        "params": {
          "_nonce": "The user's current nonce",
          "_pollId": "The poll ID",
          "_vote": "The vote (true for yes, false for no)"
        }
      },
      "hasUserVoted(uint256,address)": {
        "details": "Checks if user has voted on a poll",
        "params": {
          "_pollId": "The poll ID",
          "_user": "The user address"
        }
      },
      "isPollActive(uint256)": {
        "details": "Checks if a poll is still active based on time",
        "params": {
          "_pollId": "The poll ID"
        },
        "returns": {
          "_0": "bool True if poll is still active"
        }
      },
      "recoverSigner(uint256,bool,uint256,bytes)": {
        "details": "Recovers the signer address from a signature",
        "params": {
          "_nonce": "The nonce used",
          "_pollId": "The poll ID",
          "_signature": "The signature bytes",
          "_vote": "The vote"
        }
      },
      "submitVotes(uint256[],bool[],uint256[],bytes[])": {
        "details": "Submits a batch of votes (only callable by owner/relayer)",
        "params": {
          "_nonces": "Array of nonces",
          "_pollIds": "Array of poll IDs",
          "_signatures": "Array of signatures",
          "_votes": "Array of votes (true for yes, false for no)"
        }
      }
    },
    "title": "GaslessPoll",
    "version": 1
  },
  "userdoc": {
    "kind": "user",
    "methods": {},
    "version": 1
  },
  "storageLayout": {
    "storage": [
      {
        "astId": 18,
        "contract": "contracts/GaslessPoll.sol:GaslessPoll",
        "label": "pollCount",
        "offset": 0,
        "slot": "0",
        "type": "t_uint256"
      },
      {
        "astId": 45,
        "contract": "contracts/GaslessPoll.sol:GaslessPoll",
        "label": "polls",
        "offset": 0,
        "slot": "1",
        "type": "t_mapping(t_uint256,t_struct(Poll)40_storage)"
      },
      {
        "astId": 49,
        "contract": "contracts/GaslessPoll.sol:GaslessPoll",
        "label": "nonces",
        "offset": 0,
        "slot": "2",
        "type": "t_mapping(t_address,t_uint256)"
      },
      {
        "astId": 55,
        "contract": "contracts/GaslessPoll.sol:GaslessPoll",
        "label": "hasVoted",
        "offset": 0,
        "slot": "3",
        "type": "t_mapping(t_uint256,t_mapping(t_address,t_bool))"
      }
    ],
    "types": {
      "t_address": {
        "encoding": "inplace",
        "label": "address",
        "numberOfBytes": "20"
      },
      "t_bool": {
        "encoding": "inplace",
        "label": "bool",
        "numberOfBytes": "1"
      },
      "t_mapping(t_address,t_bool)": {
        "encoding": "mapping",
        "key": "t_address",
        "label": "mapping(address => bool)",
        "numberOfBytes": "32",
        "value": "t_bool"
      },
      "t_mapping(t_address,t_uint256)": {
        "encoding": "mapping",
        "key": "t_address",
        "label": "mapping(address => uint256)",
        "numberOfBytes": "32",
        "value": "t_uint256"
      },
      "t_mapping(t_uint256,t_mapping(t_address,t_bool))": {
        "encoding": "mapping",
        "key": "t_uint256",
        "label": "mapping(uint256 => mapping(address => bool))",
        "numberOfBytes": "32",
        "value": "t_mapping(t_address,t_bool)"
      },
      "t_mapping(t_uint256,t_struct(Poll)40_storage)": {
        "encoding": "mapping",
        "key": "t_uint256",
        "label": "mapping(uint256 => struct GaslessPoll.Poll)",
        "numberOfBytes": "32",
        "value": "t_struct(Poll)40_storage"
      },
      "t_string_storage": {
        "encoding": "bytes",
        "label": "string",
        "numberOfBytes": "32"
      },
      "t_struct(Poll)40_storage": {
        "encoding": "inplace",
        "label": "struct GaslessPoll.Poll",
        "members": [
          {
            "astId": 29,
            "contract": "contracts/GaslessPoll.sol:GaslessPoll",
            "label": "question",
            "offset": 0,
            "slot": "0",
            "type": "t_string_storage"
          },
          {
            "astId": 31,
            "contract": "contracts/GaslessPoll.sol:GaslessPoll",
            "label": "yesVotes",
            "offset": 0,
            "slot": "1",
            "type": "t_uint256"
          },
          {
            "astId": 33,
            "contract": "contracts/GaslessPoll.sol:GaslessPoll",
            "label": "noVotes",
            "offset": 0,
            "slot": "2",
            "type": "t_uint256"
          },
          {
            "astId": 35,
            "contract": "contracts/GaslessPoll.sol:GaslessPoll",
            "label": "creator",
            "offset": 0,
            "slot": "3",
            "type": "t_address"
          },
          {
            "astId": 37,
            "contract": "contracts/GaslessPoll.sol:GaslessPoll",
            "label": "createdAt",
            "offset": 0,
            "slot": "4",
            "type": "t_uint256"
          },
          {
            "astId": 39,
            "contract": "contracts/GaslessPoll.sol:GaslessPoll",
            "label": "duration",
            "offset": 0,
            "slot": "5",
            "type": "t_uint256"
          }
        ],
        "numberOfBytes": "192"
      },
      "t_uint256": {
        "encoding": "inplace",
        "label": "uint256",
        "numberOfBytes": "32"
      }
    }
  }
}